:1000000000000320D1010000D92500009525000043
:1000100095250000952500009525000095250000F8
:10002000952500009525000095250000D9250000A4
:10003000D925000095250000D51E0000D91E00001E
:10004000D9250000D9250000D9250000D9250000B8
:10005000D9250000D9250000D9250000D9250000A8
:10006000D9250000D9250000D9250000D925000098
:10007000D9250000D9250000D9250000D925000088
:10008000D9250000D9250000D9250000D925000078
:10009000D9250000D9250000D9250000D925000068
:1000A000611E00006D1E0000D9250000D92500004A
:1000B000D9250000D9250000D9250000D925000048
:1000C000D9250000D9250000D9250000D925000038
:1000D000D9250000D9250000D9250000D925000028
:1000E000D9250000D9250000D9250000D925000018
:1000F000D9250000D9250000D9250000D925000008
:10010000D9250000D9250000D9250000D9250000F7
:10011000D9250000ED2A0000D9250000D9250000CE
:10012000D9250000D9250000D9250000D9250000D7
:10013000D9250000D9250000D9250000D9250000C7
:10014000D9250000D9250000D9250000D9250000B7
:10015000D9250000D9250000D9250000D9250000A7
:10016000D9250000D9250000791E0000D9250000FE
:10017000D9250000D9250000D9250000D925000087
:10018000D9250000D9250000D9250000D925000077
:10019000D9250000D9250000D9250000D925000067
:1001A000D9250000D9250000D9250000851E0000B2
:1001B000D9250000D9250000D9250000D925000047
:1001C000D9250000D9250000D9250000D925000037
:1001D0005F4B4CF2205210B5DA814DF62812DA81CD
:1001E00000BF00BF02F0FCF95A4B4FF030621A63B7
:1001F000594A9A63594ADA634FF0E0234FF4700288
:10020000C3F8882D03F5E823554A1A60554B9A78B0
:10021000110703D59A7842F008029A70524B53485E
:10022000AA221A70524BDA1C121AC11E22F00302C3
:10023000994288BF00224F4902F0D8F84E4B4F48F0
:10024000DA1C121AC11E22F00302994288BF002252
:10025000002104F0FDFC4A494A484FF4E87202F0DC
:10026000C5F8494B494A802103F8011B9342FBD151
:100270004FF0E023434AC3F8082D454B8A221A70F9
:10028000A3F5805324225A70A0221A709A799207FB
:10029000FCD59A79D406FCD43E4A937903F00C033A
:1002A000082BFAD1304B60225A70DA78802AFCD1C0
:1002B000384B01221A715D225A719A799006FCD549
:1002C0009A795106FCD5234A33495164002191643F
:1002D000202119702F498B7903F00C030C2BFAD1D4
:1002E0002E4B53602E4A136913F4807303D153616C
:1002F0004FF4A85313614FF0E0232A4A5A610022B9
:100300009A6107221A61284AC3F8202D62B602F0CA
:10031000F3F9234B5B69DA0705D5244802F0E0F9CD
:10032000234B244ADA61244B1B785B0609D5204C09
:10033000204BE2699A4204D11C4802F0D1F9002313
:10034000E36102F053F904F01FFD02F047F8FEE705
:100350000020054000800440823F04000100002B83
:100360000300008500D0074000E007403007FF1F72
:100370005012FF1FE45600006017FF1F5012FF1FAE
:10038000000000000002FF1F00E400E064E400E061
:10039000005006400040064000000602C010070062
:1003A00000D003401FBF020000002020FE1BA168F8
:1003B00000E00340A5C3945A00F00740FFFFFFFF91
:1003C000FFFFFFFFFFFFFFFFFFFFFFFFFFFFFFFF3D
:1003D000FFFFFFFFFFFFFFFFFFFFFFFFFFFFFFFF2D
:1003E000FFFFFFFFFFFFFFFFFFFFFFFFFFFFFFFF1D
:1003F000FFFFFFFFFFFFFFFFFFFFFFFFFFFFFFFF0D
:10040000FFFFFFFFFFFFFFFFFFFFFFFFDEF9FFFF23
:100410000548064B1B1AD90F01EBA301491002D066
:10042000034B03B1184770475012FF1F5012FF1FB4
:100430000000000008B5054B1BB105490548AFF3A6
:100440000080BDE80840FFF7E3BF00BF00000000E8
:100450005012FF1FDC5600002DE9F0430221084630
:1004600085B002F0FDF9642002F036FA01E002F0F6
:1004700033FA022002F0E6F901284FF06400F6D0CA
:10048000594D5A4C2E685A4FDFF8B49140F2EE287D
:1004900003F00EF92378002B6CD03B78DB0769D58D
:1004A0002B68D9F800209B1A0E2B63D9C82002F0C4
:1004B00013FA0A214F4802F0F3FF4F4801F05EFDA6
:1004C0003721282000F086FE044600F093FB054605
:1004D000002C5CD1002844D04FF47A7002F0FCF973
:1004E000464C00F0CBFC464A464B82ED000A83EDB9
:1004F000001A4549454A464BC1ED000A82ED001AF3
:1005000083ED000A4349444A444B94ED007A8DED53
:10051000010AF0EE417ACDED020A8DED031AC1ED2C
:10052000000A82ED001A83ED001A3D4B3D4A83ED2F
:10053000007A3D493D4B81ED007A4FF47A70C2ED6F
:10054000007AC3ED007A02F0C7F90D21384802F0B5
:10055000A7FF294801F012FD05B0BDE8F04300F007
:10056000CDBA4FF47A7002F0B7F94FF47A7002F016
:10057000B3F9F6E72B6822789B1B2AB1B3F5FA6F23
:1005800094D803F095F883E74345FAD98EE74FF402
:100590007A7002F0A1F900F03DFE264B264A83ED69
:1005A000000A164C254B8DED010AB0EE417ACDEDD7
:1005B000020A8DED031AC2ED000A84ED001A83EDE4
:1005C000001A002D8DD1124B0E4883ED000A1149FF
:1005D000114A124BD0ED007AC1ED000A82ED007A8B
:1005E00083ED007AA1E700BF2813FF1F0814FF1F47
:1005F0002C14FF1F545100005C0CFF1F8012FF1FC2
:10060000BC12FF1F7C12FF1F9C12FF1F8812FF1FCE
:10061000B812FF1F9812FF1F7812FF1F8412FF1FCE
:100620004407FF1F3407FF1F3807FF1F4007FF1F46
:1006300060510000C012FF1FA012FF1F8C12FF1F8D
:100640003014FF1F70B52DED088B8CB000F0E2FD6B
:10065000F4EE410AF1EE10FA8DED060ACDED070A2F
:100660008DED081A80F1EB81BF4DC04EC04C85ED79
:10067000000AC6ED000A84ED001A00F0FFFBF4EE5C
:10068000410AF1EE10FAB0EE407AF0EE607AF0EE48
:10069000418AB0EE609AB0EE418A8DED090ACDED47
:1006A0000A0A8DED0B1A76D794ED008A96ED009A22
:1006B000D5ED009AAF4CB048B049B14AB14BC4ED4A
:1006C000009A80ED009A81ED008A82ED008A83ED28
:1006D000009AAD4B9FEDAD0AD3ED007AAC4BDFED48
:1006E000AD0AC3ED009A78EE677A37EE800A03F020
:1006F00097F8DFEDA97AA94B30EE670AD3ED007ABF
:10070000A74BB0EEC00AF4EEC07AF1EE10FAACBF1F
:10071000012400241C70A34B9FED9C0AD3ED007AAA
:10072000DFED9C0A78EE677A37EE800A03F078F8FE
:100730009D4B93ED007A002C00F009819B4C2268C0
:10074000002A40F0D7809A4B1968029102991B68E1
:1007500003930398974B2160401A186096480260F3
:10076000002940F0D180954D2878002840F0F9808C
:10077000934A19681268B0EE691AF0EE490AB0EEB1
:10078000480A00F0C9F932200CB0BDEC088BBDE876
:10079000704002F0A1B88B4B94ED000AD3ED006AD3
:1007A00089488A498A4AC0ED000AB4EEE60AF1EEA9
:1007B00010FA81ED001A82ED007AF0EE479A03D527
:1007C000F0EE406A83ED000A824B8349D3ED005A74
:1007D000824ADFED6EBA6948664CDFED6E0AC0ED05
:1007E000008AB4EEE50AF1EE10FAC8BF83ED000A04
:1007F0007B4B84ED007A93ED005A9FED67BAB4EE1F
:10080000E85AC8BFF0EE405AF1EE10FAC8BFC3ED87
:10081000008A744B93ED006AB4EEE86AC8BFB0EE8C
:10082000685AF1EE10FA48BFC3ED008A6E4B48BF1C
:10083000B0EE686AD3ED004A4F4B75EEE65A36EEDD
:10084000456A30EE640AC1ED005A82ED006AC3EDDC
:10085000007A4B494B4A4E4BC1ED008A30EE2B0AD1
:10086000C2ED007A83ED007A02F0DAFF5F4A604B56
:10087000D2ED00AAD3ED007A5E4BDFED460A30EEF2
:100880004B0A78EEE78AB0EEC0AAF4EECAAAF1EEFF
:1008900010FAACBF0122002238EEAB0A1A7002F047
:1008A000BFFF554B30EE4B0AD3ED007A534BB0EE01
:1008B000C00AF4EEC07AF1EE10FAF4EECAAAACBFA8
:1008C00001220022F1EE10FA1A7080F2F480002466
:1008D000374B4B491A680092009A0D683048521BFA
:1008E000B2F57A7F04707FF616AF1B680193019B07
:1008F0000B6010E72E492F4B0968039103992E488E
:100900008A1A1A60002202602C4D2A783AB93D4AB0
:10091000196812689142C0F08E8001222A7001206D
:10092000DFED1D7A30EE670AF0EEC07AB4EEE77ABA
:10093000F1EE10FAFFF61CAF21491F4E0A68013292
:100940000A600021297021601960316013E7174C9B
:100950002368002B58D1194D164B287800283FF4F6
:1009600007AF0020DCE700BFC012FF1FA012FF1F6F
:100970008012FF1FB812FF1F9812FF1F7812FF1F6F
:100980007412FF1FA412FF1F4807FF1F0000074437
:10099000B412FF1F0000B443000034435007FF1F90
:1009A0007112FF1F8412FF1F5807FF1FA812FF1F9D
:1009B0002813FF1FAC12FF1FB012FF1F7012FF1F82
:1009C0006C12FF1F4407FF1F9C12FF1F7C12FF1FAA
:1009D000BC12FF1F3807FF1F9412FF1F9012FF1F4A
:1009E0004007FF1F3407FF1F8C12FF1F5C07FF1F0C
:1009F0004C07FF1F7312FF1F5407FF1F7212FF1FC8
:100A00006812FF1F3C07FF1F2F49304B0A681AB9B5
:100A10001A680492049A0A601B682D480593059B86
:100A200000689B1A83422B4B7FF66EAF0022226038
:100A30001A600A6097E6284B01201A689BE600F0CE
:100A40001DFAF4EE410AF1EE10FAF0EE409AB0EE23
:100A5000609AB0EE418A8DED090ACDED0A0A8DED5E
:100A60000B1A18D61D491E4A1E4B81ED009A82EDC5
:100A7000008AC3ED009A1C4C1C481D491D4A1E4BA0
:100A8000C4ED009A80ED009A81ED008A82ED008A23
:100A900083ED009A1DE6164A144B92ED008A93ED01
:100AA000009A1449144B0F4A81ED008AD2ED009A46
:100AB00083ED009A0DE6F4EEC07AF1EE10FAACBFC9
:100AC0000124002404E700BFB012FF1F2813FF1FFA
:100AD0006007FF1FAC12FF1F6C12FF1F9C12FF1F4D
:100AE0007C12FF1FB812FF1FBC12FF1F9812FF1FBE
:100AF0007812FF1F7412FF1FA412FF1F08B50448CD
:100B0000232102F0CDFCBDE80840024801F036BACE
:100B1000705100005C0CFF1F2DE9F04110EE108AAF
:100B20002DED028B06460D462E480421B0EE418A7B
:100B3000144610EE907A02F0B3FC01212A4802F02C
:100B4000AFFC404603F03AFA41EC100B0221274873
:100B500001F02EFA0121244802F0A2FC384603F0ED
:100B60002DFA41EC100B0221204801F021FA1E4819
:100B7000012102F095FCB4EE488AF1EE10FA2CD671
:100B800018EE100A03F01AFA41EC100B1748022174
:100B900001F00EFA0121144802F082FC314613489C
:100BA00001F0E4F90121104802F07AFC00230A2246
:100BB00029460E4801F0F0F901210B4802F070FCC3
:100BC00021460A4800230A2201F0E6F9BDEC028B17
:100BD0000648BDE8F04101F0D1B90321044802F014
:100BE0005FFCD7E7945100009C5100005C0CFF1F94
:100BF000A0510000F8B51C212DED068B8A4802F0AB
:100C00004FFC8A4801F0BAF95321894802F048FCA8
:100C1000864801F0B3F940F6B83001F05DFE0025DA
:100C200064242E462F460E2001F066FB03460F205B
:100C30001F4401F061FB034610201E4401F05CFBE1
:100C4000034605201D4401F047FE013CEBD1794BE2
:100C5000DFED795A9FED796ADFED799A794C7A4820
:100C600083FB0712FF17C7EB621783FB061283FB98
:100C70000513ED17C5EB631507EE905A07EE107AD2
:100C8000F617C6EB6216F8EEC76AF8EEE77A07EEDB
:100C9000106A67EEA57AB8EEC77A87EE868A6B4E41
:100CA0006B4D1B2167EE257A66EEA56AC7EE868A34
:100CB00086EE869A78EE697A86ED009AC4ED007A1F
:100CC000C5ED008A02F0ECFB19EE100A03F076F98C
:100CD00041EC100B0321554801F06AF906215D48EB
:100CE00002F0DEFB18EE900A03F068F941EC100BFD
:100CF00003214E4801F05CF90621574802F0D0FB71
:100D000018EE100A03F05AF941EC100B0321474882
:100D100001F04EF90121514802F0C2FB434801F0B5
:100D20002DF913214E4802F0BBFB306803F046F961
:100D300041EC100B03213D4801F03AF906214548EA
:100D400002F0AEFB286803F039F941EC100B0321E7
:100D5000364801F02DF906213F4802F0A1FB20683A
:100D600003F02CF941EC100B0321304801F020F97D
:100D700001213A4802F094FB2C4801F0FFF8D6ED2F
:100D8000006A95ED007AD4ED007A364839EE669A1D
:100D900078EEC78A89EE29AA182188EEA99A38EE3A
:100DA000678A02F07DFBC8EE298A1AEE100A03F06A
:100DB00005F941EC100B03211C4801F0F9F806215C
:100DC000294802F06DFB19EE100A03F0F7F841EC28
:100DD000100B0321154801F0EBF80621234802F01F
:100DE0005FFB18EE900A03F0E9F841EC100B0321C9
:100DF0000E4801F0DDF801211D4802F051FB0B48BF
:100E000001F0BCF836211B4802F04AFB074801F00C
:100E1000B5F81821184802F043FB044801F0AEF879
:100E2000BDEC068B0120F8BDA45100005C0CFF1F37
:100E3000C45100001F85EB513333534000C07F4441
:100E4000C3F5A83EE412FF1F18520000DC12FF1F7A
:100E5000E012FF1F345200003C52000044520000D8
:100E6000485200005C52000078520000805200009E
:100E7000885200008C520000C452000070B52DED65
:100E8000068B0E2088B001F037FA03460F2008EEDB
:100E9000903A01F031FA08EE100A102001F02CFA15
:100EA000DFEDAE6A9FEDAE7AAE4AAF4BD2ED003ABF
:100EB00093ED004AAD4BAE49D3ED004AAD4AAE4B7F
:100EC00007EE900AF8EEE88AB8EEC88A68EEA68ABD
:100ED00028EE268AF8EEE77A88EE875AA748C8EE09
:100EE000075A67EEA67A35EE635A87EE876A75EE83
:100EF000C45A9FEDA37AD1ED007AD2ED006A85EE57
:100F0000079A85EE878A36EE646A79EE677AC6EECE
:100F1000078A78EE666A93ED007A9FED9A6A81ED12
:100F2000009A38EEC77AF0EEE77AF0EEE66A77EEEE
:100F3000A67AB0EEC77A77EE877A82ED008AF4EE71
:100F4000C67AF1EE10FACCBF01210021C3ED008A70
:100F5000017040F3B580DFED8C7A8C4B8C4E1A78A3
:100F60008C4D8D4C002A40F08C80012286ED009A39
:100F700085ED008AC4ED008A1A7068EE089A28EEA2
:100F8000A8AAB0EE690AA9EE090A30EE0A0AB5EE7F
:100F9000400AF1EE10FA00F1D580F1EEC07AB6EE1B
:100FA000007AF4EEC77AF1EE10FA06DDB7EE087AB1
:100FB000F4EEC77AF1EE10FA4FD479EE8A9AF5EE94
:100FC000409AF1EE10FA00F1C280F1EEE90ADFED8D
:100FD000737AF4EEE70AF1EE10FA40F193809FED98
:100FE000709ADFED6E7AB0EEE87AB4EEE77AF1EE61
:100FF00010FA06D5B0EEC87AB4EEE77AF1EE10FA40
:101000003CD4F0EE680AB0EE480A02F007FCDFEDCF
:10101000657A9FED657A20EE270ADFED647AC0EEEF
:10102000070A60EEA70A624B624A9FED606A93ED81
:10103000007ADFED617AD2ED006A9FED600A29EE59
:10104000061AE6EEA70AA7EE271AC2ED000A83EDFC
:10105000001A08B0BDEC068B70BD88EE278AC8EE7A
:10106000A78A89EE279A68EE089A28EEA8AA86ED44
:10107000009A85ED008AC4ED008A9EE7DFED480AFC
:10108000D1E7B7EE007A37EE677AD6ED005A95EDE4
:10109000006AD4ED006A29EE279A28EE278A68EEC6
:1010A000A77AA5EE879AE6EE877AA6EE078AF0EE93
:1010B000678A86ED009A85ED008AC4ED007A5CE7C8
:1010C000DFED3F7A9FED367AF0EEC96AF4EE676A9B
:1010D000B0EEC86AF1EE10FAF0EEE86AB4EE676AB4
:1010E00048BFB0EE479AF1EE10FAF4EEE76A48BF57
:1010F000B0EE478AF1EE10FADFED327A48BFF0EE3B
:10110000478A2AE7B1EE490A02F088FBDFED257A2B
:101110009FED257A20EE270ADFED2B7A80EE079AE5
:10112000B4EEE79AF1EE10FA09DCDFED287AB4EEBE
:10113000679AF1EE10FA48BFB0EE679A51E7B0EE49
:10114000679A4EE702F090FBF0EE407A27E7B0EEA8
:10115000690A02F089FBF0EE400A38E73333534066
:1011600000C07F44DC12FF1FE012FF1FE412FF1FCC
:10117000D012FF1FD412FF1FD812FF1FE812FF1F4B
:10118000C3F5A83ECDCCCC3D9A99993ECC12FF1F19
:10119000EC12FF1FF012FF1FF412FF1F0AD7233CAF
:1011A0000000000000003443DB0F4940CDCC4C3E32
:1011B000C812FF1FC412FF1FCDCC4C3F0000C07FE0
:1011C0000AD7A33C9A99193E0000B4420000B4C269
:1011D000704700BF30B585B00C4C0D4B02466846D9
:1011E00000F07EF80198029A9DF80C3060600C21A6
:1011F0002046A260237300F08BF8054618B1012148
:10120000204600F041F9284605B030BDF812FF1F16
:101210006407FF1F00B52DED028B8FB01A2208A8BE
:101220000F4900F081F9DDE90A0103F0EFF9034607
:10123000DDE90C0108EE903A03F0E8F90346DDE938
:10124000080108EE103A03F0E1F900EE100AF0EEA2
:10125000680AB0EE481A0FB0BDEC028B5DF804FBD3
:10126000F812FF1F10B51021044601F009FA2046BC
:1012700010BD00BF10B5074C074B28223721204670
:1012800000F02EF82046054A0549BDE8104002F05E
:101290002BBD00BFF812FF1F6407FF1F3007FF1FA1
:1012A000D1110000704700BF38B50C46054620221A
:1012B000002104F1080003F0CBFC07490B22204673
:1012C00003F018FD0122E260A968044B21610322AA
:1012D0006261236238BD00BFE05200000AD7233CA0
:1012E00030B504460948206083B000206060A160EA
:1012F00010200192009301F0C1F9009A019905466E
:1013000000F0D0F92046656003B030BDF052000017
:101310002DE9F041064684B040680F46002100F0F8
:10132000CBF9552504E001F0D7FA013D00F0A78084
:101330007068012100F0C0F904460A20002CF2D0A8
:101340004FF00008012503ABCDF804800095194645
:1013500070688DF80C802A4600F03AFA9DF80C303F
:10136000A02B12D04FF47A7001F0B6FA03ABCDF88F
:1013700004800095194670688DF80C802A4600F0AC
:1013800027FA9DF80C30A02B79D1002535730195F3
:1013900000954FF03D0C0123022203A97068ADF8BF
:1013A0000CC000F0A5F91E2001F096FA01950095F9
:1013B00042F23F0C0123022203A97068ADF80CC071
:1013C00000F096F91E2001F087FA4FF0010801E0C5
:1013D00001F082FA03AB7068019519460122CDF83D
:1013E00000808DF80C5000F0F3F99DF80C30A02B24
:1013F0004FF00A00ECD1322001F06EFA0195009511
:101400004FF03E0C03A9012302227068ADF80CC016
:1014100000F06EF90A2001F05FFA019500950723AC
:1014200003A9ADF80C3070680123022200F060F9C6
:10143000019500954FF03F0C03A90123022270682B
:10144000ADF80CC000F054F90A2001F045FA7068BC
:10145000377303A901230222019500953D258DF8DC
:101460000D708DF80C5000F043F91E2001F034FA95
:10147000142001F031FA204604B0BDE8F0810024C8
:10148000204604B0BDE8F081F0B585B00025077BAB
:10149000057301950095012302224FF03D0C04468F
:1014A0000E464068ADF80CC003A900F021F91E20DB
:1014B00001F012FA192001F00FFA072301950095A7
:1014C000ADF80C3060680123022203A900F010F986
:1014D00036B348F23F020195009503A90123ADF808
:1014E0000C206068022200F003F90A2001F0F4F9F0
:1014F0000022277360680192012303A900923D2412
:1015000002228DF80C408DF80D7000F0F1F81E20CD
:1015100001F0E2F9142005B0BDE8F04001F0DCB9BB
:101520003F2201960096D8E7F0B50E4687B01446E4
:1015300000211822054603F08BFB002370680493FA
:101540000193ADF8143006238DF80C40009301226E
:1015500004AB03A9083C00F03BF9BDF91000BDF94C
:101560001270BDF91460262C33D8DFE804F0143271
:101570003232323235323232323235323232323245
:101580003532323232323232323232323232143256
:1015900032323232140002F0FFFC204B002202F003
:1015A0008FFE02460B46C5E90023384602F0F4FCE4
:1015B0001A4B002202F084FE02460B46C5E90223C4
:1015C000304602F0E9FC154B002202F079FEC5E935
:1015D0000401284607B0F0BD02F0DEFC104B0022EB
:1015E00002F044FD02460B46C5E90023384602F0EE
:1015F000D3FC0B4B002202F039FD02460B46C5E935
:101600000223304602F0C8FC054B002202F02EFDFA
:10161000C5E90401284607B0F0BD00BF00005940ED
:101620000000B03F30B50C4689B0054620220021AD
:10163000201D03F00DFB2422114B22601B68019337
:10164000AA68019B2361032029466260A0601A22D8
:1016500002A8FFF769FFDDE9020102F0D7FF0346A8
:101660006361DDE9040102F0D1FF0346A361DDE916
:10167000060102F0CBFF03460120E36109B030BD53
:101680002813FF1F90F8A03090F8A1209A4205D9A6
:101690005A1C034480F8A020187E70474FF0FF309A
:1016A000704700BF4FF0000C42602022017080F8AC
:1016B00008C0C260704700BF38B5044640680D4698
:1016C00000F008F9012323720DB9184638BD2178BE
:1016D0006268994082F8A31082F82E3182F82D3189
:1016E0006068194600F04AFAB0FA80F0400938BD47
:1016F0002DE9F041DDF81C801F46C36815464244C1
:101700009A4218D802784368520083F8A320012235
:1017100004460E4683F82E2183F82D21B8F1000FE0
:101720000CD0069B53B140680699036842465B683B
:101730009847804502D00020BDE8F08160680368CA
:1017400031465B682A4698478542F4D1606839463D
:1017500000F014FAB0FA80F04009BDE8F08100BF53
:101760002DE9F84315460646D2B20F460178406887
:1017700000F07AFA854224D105B30024DFF84C90BA
:10178000A04613E090F8A0C090F8A12062450CF1AB
:101790000101844418D980F8A0109CF8183007F88B
:1017A00008300134A4B2A542A04607D97068026887
:1017B00052694A45E6D09047C3B2F0E70120BDE840
:1017C000F8830020BDE8F883FF23E8E785160000D2
:1017D0002DE9F0411F46C368069E9DF81C809A4281
:1017E00011D8054600786B68400083F8A3000120FB
:1017F00083F82E0183F82D01686803685B6814463E
:101800009847844202D00020BDE8F08168684146D4
:1018100000F0B4F90028F6D1044696B1EB68321B0B
:101820009A4228BF1A46B31AA3428CBF0023012351
:10183000391928461444FFF793FF0028E3D0A64245
:10184000ECD80120BDE8F0810020704790F8A1207D
:1018500090F8A000101A704790F8A03090F8A120DE
:101860009A4286BFC018007E4FF0FF30704700BF1D
:10187000704700BFB0F82E312BB190F82D31882B76
:1018800003D90123436000207047C218013380F858
:101890002D31012082F8A310704700BF38B5B0F891
:1018A0002E41A4B190F82D31C3F18904A24284BF26
:1018B00001224260054698BF1446A33018442246D0
:1018C00000F094FD95F82D31234485F82D31204604
:1018D00038BD00BF42690023A0F8A030C0F82C3109
:1018E00010B4D2E900140A68C0F834312243046904
:1018F000C0F838310A60A370426990F83131184954
:10190000134493F808C05B7B01EBCC0C1B02DCF8A2
:10191000044003F4E06343F06403236090F8323141
:1019200013449C7CDB7D01EBC4011B024C681168F5
:1019300003F4E06343F064032360096853681942C9
:1019400005D003692C225A70036904229A71036935
:1019500020225A71036980229A705DF8044B704707
:101960000054000038B50369DA78D5B2D2060446CF
:1019700022D51022DA706B061DD515F0040567D04C
:101980004249D4F8342100230B7084F82D31002A09
:1019900072D0904794F82D31002B6DD02369D0225E
:1019A0009A70236994F8A3201A712369012284F89C
:1019B0002C210222DA7038BD15F0400CDDD19A7965
:1019C00002F060016029D2B231D09A7812F0100290
:1019D00016D015F0010548D194F82C2194F82D115A
:1019E000914250D9511C224484F82C1192F8A32022
:1019F0001A712369D0229A7023690222DA70DAE719
:101A000084F830219A7942F020029A71236994F87F
:101A1000A1101A798729D2B2CBD81C4800780028A7
:101A2000C7D0481C214484F8A1000A76C1E702F01F
:101A3000DF029A71D0F8383123B190F8A10084F810
:101A4000A0C0984723699A7812F01002D8D0C0E756
:101A5000236984F8A150C0229A700C4A236901219D
:101A6000117002221879DA70A5E7C0229A702369F2
:101A70001A790222DA709EE70122002384F82D21D0
:101A800084F8A3308AE71D71B3E700BF0813FF1F76
:101A90002DE9F047374C0269236882B00093DDF8E6
:101AA0000080D378990618D5334E0546002102E010
:101AB000D3789B0611D523680193019BA3EB080300
:101AC0000F2BF5D969B1102BF2D0002090702B6943
:101AD00080229A7002B0BDE8F087012002B0BDE814
:101AE000F08795F831216B6913440521187A00F0CD
:101AF000B7FE6B6995F831211344012193F812A0C8
:101B0000504600F0ADFE09274FF49679002150466B
:101B100000F06EFE4B46013BFDD10121504600F026
:101B200067FE4B46013BFDD1013FEFD1696995F856
:101B300031310B444FF41672187A5B7B06EBC00010
:101B40001B02406803F4E06343F06403036095F80C
:101B500032310B44997CDB7D06EBC1011B024968E5
:101B600003F4E06343F064030B60013AFDD101210B
:101B70002A699DE72813FF1F00540000F0B5036990
:101B80001222DA700269937813F0200685B00446B9
:101B90000D4652D0B4239370324920690B680093EC
:101BA000009E05E00A680192019A921B042A3DD822
:101BB000C37813F02003F5D094F82D316BB34FF0B8
:101BC000000CE646022604EB0E0393F8A3300371E3
:101BD0000B680293029F206907E092060AD50A6803
:101BE0000392039AD21B052A20D8C378DAB213F0E5
:101BF0000203F2D0C6702369DA78D7B2D20618464B
:101C000026D4BA0624D5FA0726D494F82D310CF13F
:101C1000010C5FFA8CFE7345D5D8002015B12369FD
:101C200080229A70002384F82E3104E083702369A7
:101C300080229A70042005B0F0BDFFF729FF28B17B
:101C4000236984F82F61B0229A70A5E70420F2E797
:101C500080229A700420E1E7BEF1000F0CBF022041
:101C60000320DDE72813FF1F2DE9F0479046994632
:101C700000220369A0F8A0201222DA7003699C7880
:101C800014F0200588B007468A4600F0A280B422EE
:101C90009A70724E3B6932680092009A08E0306890
:101CA0000190019CA4EB020CBCF1040F00F28980AE
:101CB000DC7814F02005F2D04FEA4A0242F001022B
:101CC000D2B21A713368029302983A6906E0336817
:101CD00003930399091A052900F28580D47814F03A
:101CE0000205F4D04FF0020C82F803C03B69DC78A7
:101CF00014F011057FD1B8F1000F00F08780B8F122
:101D0000010F00F09080A0229A7039690B794FF092
:101D1000A80E33680493049805E032680592059A8A
:101D2000121A052A6BD8CB7813F00203F5D081F88C
:101D300003C03969CB78DCB2DB0608460A4644D4D6
:101D4000A40642D508F1FF385FFA88F8B8F1010F10
:101D500004D181F802E0396908460A46872D5CD92A
:101D60000379B8F1010FD4D133680693069805E0E2
:101D7000316807910799091A052959D8D37813F0C2
:101D80000203F5D00223D3703A69D378D806D9B2CA
:101D900058D48B0619D5B023872D93704FD83A6944
:101DA0007C19127922766B1CDDB200BF00BF00BF28
:101DB000B9F1000F02D03B6980229A7087F8A150D8
:101DC00003E09D703B6980229A70284608B0BDE808
:101DD000F087FFF75DFE0028F7D03B6987F82F51A9
:101DE000B0229A7055E795703B69802228469A7018
:101DF00008B0BDE8F08780229A700025E5E78B7077
:101E00003B6980229A7087F8A150DEE7B9F1000F94
:101E100014BF8022A0229A70D7E77B190079187628
:101E20006C1CE5B29DE7A8229A703A6913799BE78A
:101E300093703B6980229A7087F8A150C5E73B698F
:101E40001B79B2E710214FF49673D170013BFDD19D
:101E50003A69937803F0F7039370B6E72813FF1FEE
:101E60000148FFF77FBD00BF6407FF1F0148FFF770
:101E700079BD00BFA008FF1F0148FFF773BD00BF79
:101E8000DC09FF1F0148FFF76DBD00BF180BFF1FE6
:101E900070B5EFF3108272B60C4C206880B10C4E16
:101EA00000254369236073B19D6102B962B68368FE
:101EB00045779847EFF3108272B620680028F0D17A
:101EC00002B962B670BD3360EFE700BF1413FF1FA5
:101ED0001013FF1FFFF7DCBF024A136801331360C2
:101EE000704700BF2813FF1F70B5012A8AB008BFD2
:101EF0000A22A1B34FF0210E02E05FFA86FE2946C6
:101F0000B1FBF2F502FB15145FFA84FC092C0CF10D
:101F1000300498BF5FFA84FC0EF1280488BF0CF1EE
:101F2000370C6C4488BF5FFA8CFC91420EF1FF368F
:101F300004F824CCE1D24BB10EF1FF3E5FFA8EFEE5
:101F40000EF128036B442D2203F8242C036801A909
:101F50005B68CEF12202714498470AB070BD30220E
:101F60008DF825204FF0210EE5E700BF0029BABF0C
:101F700049422D2300230A22FFF7B6BF00B50368AC
:101F800083B040F60D22ADF804205B68022201A95F
:101F9000984703B05DF804FB32B9036800B51B68CD
:101FA0005DF804EBC9B21847FFF79EBFFFFFFFFFC4
:101FB0002DE9F04F55EC104B87B006460F4610EE5A
:101FC000102A10EE100A2B46294602F0E9FA0028E2
:101FD00040F0AA8025F000495F4B4FF0FF322046C9
:101FE000494602F0DDFA48B95B4B204649464FF0BE
:101FF000FF3202F0B7FA002800F08D80574B4FF007
:1020000060422046294602F0C1FA00287AD1544B9A
:102010004FF060422046294602F09AFA002871D11A
:10202000002200232046294602F092FA002875D1AA
:102030008246002F7BD00FF21819D9E9008949494F
:102040004FF0000B00204B460BF1010B424602F013
:102050000DF85FFA8BF3BB42F5D302460B462046E0
:10206000294601F04DFE0F2F28BF0F270D460446CD
:10207000019702F0ABFA074601F07EFF02460B46DD
:102080002046294601F03AFE53460A2204460D46F0
:1020900030463946FFF728FF019FDFF8D8902E23FE
:1020A0008DF808300DF109027B1E824652FA83FB3F
:1020B00002AF4FF0000842464B462046294601F049
:1020C000D5FF0D46044602F081FAC0B200F130039C
:1020D00007F8013F01F060FF02460B462046294603
:1020E00001F00CFEBB4504460D46E4D1019A33686D
:1020F00001325B68D2B202A930469847504607B019
:10210000BDE8F08F336818495B680322304607B09A
:10211000BDE8F04F184733681449F5E705F100436F
:102120001D464FF0010A84E733681149ECE70D4B77
:1021300000222046294601F0E3FD02F047FA53460B
:1021400001460A22304607B0BDE8F04FFFF7CCBE8B
:10215000000000A09999B93FFFFFEF7FFFFFEF411B
:10216000FFFFEFC10000E03FB4530000B053000098
:10217000AC5300000000244038B52A4C2A4D01E041
:1021800001F096FA636A1B06FAD46B6A13F08003B7
:10219000F6D172B625490A78002A40D0A26BE06BCE
:1021A0000244206C0244606C0244A06C0244E06C67
:1021B0000244C2F34E0242F40042E262A26DE06DBC
:1021C0000244206E0244606E0244A06E0244E06E3F
:1021D0000244C2F34E0242F400422263AA6BE86B4F
:1021E0000244286C0244686C0244A86C0244E86C07
:1021F0000244C2F34E0242F40042EA62AA6DE86D64
:102200000244286E0244686E0244A86E0244E86EDE
:102210000244C2F34E0242F400422A630B7062B6DB
:1022200038BD00BF00B0034000B00B402413FF1FB7
:102230002A4B2B4A6020E1211870597013782948E5
:10224000082B34D00A2B20D00C2B274B0CBF352168
:102250005D2112228160C2609960DA60234B2149BE
:102260001B78214ACBB101230B621362204B1D491D
:102270001B781D4A012B13D9042B1BD884234B62D6
:1022800053621C4B01221A707047174B39211322DD
:102290008160C2609960DA60E0E70B621362E5E793
:1022A00080234B625362134B01221A7070470E4B0E
:1022B0002121ECE7082B06D885234B6253620D4B96
:1022C00001221A707047102B94BF862387234B621C
:1022D0005362084B01221A70704700BF004007404C
:1022E000540CFF1F00B0034000B00B402213FF1F2F
:1022F000550CFF1F2413FF1F472829D8304B2DE909
:10230000F0411E5CFF2E53D02E4B1B7813BB3406BE
:1023100024D472B62C4C2D4D01272E60277062B646
:1023200072B62B68180609D42378002BF5D062B654
:1023300001F0BEF972B62B681906F5D5234A0023C1
:102340001069237062B6224B1B781841BDE8F081FA
:1023500000207047FFF710FF3406DAD572B61D4D26
:102360001D4C06F04008012706F03F06E368B8F16F
:10237000000F20D023F01003E36026602F7062B6B8
:1023800072B623681A0609D42B78002BEED062B6F9
:1023900001F08EF972B623681B06F5D50E4A0023AC
:1023A00010692B7062B60A4B1B781841BDE8F081AA
:1023B0000020BDE8F08143F01003E360DDE700BFDB
:1023C000B85300002413FF1F2013FF1F00B0034069
:1023D0002313FF1F2113FF1F00B00B4008B5FEF7AA
:1023E0003BF8FEF72FF901F063F9FAE701B441EA8F
:1023F000000313F003036FD1403A41D351F8043B7B
:1024000040F8043B51F8043B40F8043B51F8043BCE
:1024100040F8043B51F8043B40F8043B51F8043BBE
:1024200040F8043B51F8043B40F8043B51F8043BAE
:1024300040F8043B51F8043B40F8043B51F8043B9E
:1024400040F8043B51F8043B40F8043B51F8043B8E
:1024500040F8043B51F8043B40F8043B51F8043B7E
:1024600040F8043B51F8043B40F8043B51F8043B6E
:1024700040F8043B51F8043B40F8043B403ABDD2DD
:10248000303211D351F8043B40F8043B51F8043B7F
:1024900040F8043B51F8043B40F8043B51F8043B3E
:1024A00040F8043B103AEDD20C3205D351F8043B0E
:1024B00040F8043B043AF9D204320AD0D2071CBFD8
:1024C00011F8013B00F8013B03D30B7803704B7804
:1024D000437001BC704700BF0C2A4AD310F00303BD
:1024E00011D0C3F10403D21ADB071CBF11F8013B62
:1024F00000F8013B07D311F8013B00F8013B11F84C
:10250000013B00F8013B11F003033FF475AF30B419
:10251000043AC91AC3F1040C51F8044B022B19D028
:10252000032B0BD0240A51F8043B1D0644EA050492
:1025300040F8044B1C46043AF4D216E0240E51F83D
:10254000043B1D0244EA050440F8044B1C46043ACF
:10255000F4D20AE0240C51F8043B1D0444EA0504BB
:1025600040F8044B1C46043AF4D20432B1EB0C019F
:1025700030BC043AA0D3013A11F8013B00F8013B0A
:10258000F9D20B7803704B7843708B78837001BC61
:10259000704700BF08B50F4C636B58030DD4636BD5
:1025A00059050FD4636B1A0511D4636BDB04F3D5A3
:1025B00000F012F8636B5803F1D500F097FA636BE3
:1025C0005905EFD500F008F8636B1A05EDD500F05A
:1025D00003F8EAE70080044008B5FFF7DBFF00BF1F
:1025E000014B10221A80704700200540704700BF41
:1025F0000B490A6848B108B5EC461318ACF5005011
:10260000834204D20B60104608BD1046704702F0AA
:10261000B5FB0C234FF0FF320360104608BD00BF2E
:10262000580CFF1F074BDA78802A01D00020704732
:1026300005490648486400225A70DA78802AFCD09E
:102640000120704700E0074000800440000028227D
:10265000074BDA78012A01D00020704760225A70B7
:10266000DA78802AFCD1034B034A5A640120704770
:1026700000E00740008004400000060202F016B8A7
:1026800002F01CB801F1FF3C70B56546002401E082
:1026900070460134B0FBF2FE02FB1E03092B03F16E
:1026A00030068ABF3733F3B2DBB2904205F8013F00
:1026B000EED2631C0022CA54C8187CB162461CF8D2
:1026C000015F10F801ED8CF800E0A1EB0C03023281
:1026D000013B521A23449A420570EFDB084670BD55
:1026E000034B002210215A615A60186059617047EB
:1026F00000D00340704700BF4FF0E02C2DE9F041BF
:102700004FF00068CCF804814FF08058CCF8048179
:102710004FF00058CCF804812F4A3049304C314DED
:10272000314E4FF08048CCF80481282300204EF62B
:10273000FF7E09274FF00048CCF804814860C1F8BB
:1027400008E0CB604B61CB614B62CB624B63CB63E8
:102750004B64D3605361D3615362D3625363D363D9
:1027600053640F606860C5F808E0EB606B612F6030
:102770006060C4F808E0E360636127605060C2F8FD
:1027800008E0D36053611760F16A41F40071F162AF
:10279000716802F5803241F00071716047F6FF7494
:1027A0000821506082B09460D36053611160FFF7DC
:1027B0003FFDFFF79FFF0D4C23680093009B132BF9
:1027C000FAD900F04DFD23680193019BB3F5967F84
:1027D000F9D302B0BDE8F08100900B4000800340C7
:1027E00000800B4000900340008004402813FF1F2E
:1027F0003F2818D810B4124B53F8302092F880427A
:1028000034B1012381B982F800315DF8044B70477F
:1028100003EBC0035B681A6859B142F003025DF82C
:10282000044B1A607047704782F880305DF8044BA3
:10283000704722F002025DF8044B1A60704700BF37
:10284000005400003F2806D8044B53F8303093F86A
:102850000002C0B270470020704700BF0054000063
:102860003F2820D81B4A02EBC00301295B680FD028
:1028700004291DD052F83000002280F8802299B13E
:10288000022922D003290DD14FF481721A607047BA
:1028900052F830004FF4A27280F880121A601A6861
:1028A00022F020021A6070474FF480721A6070475D
:1028B00052F830104FF4A272012081F880021A60A1
:1028C0001A6842F020021A60704740F203121A6040
:1028D000704700BF005400002DE9F843044672B66B
:1028E000214F4FF0E02293693D68D2F8042D62B683
:1028F000520102D5322B88BF01350CB9BDE8F883EF
:10290000DFF86890DFF86880A9EB03039B08A8FB59
:1029100003234FF47A7202FB05F505EB93054FF0A4
:10292000E02672B6B1693A68D6F804CD62B6A9EB72
:1029300001039B08A8FB03031CF0806FC5EB930306
:102940004FF47A7002D0322988BF013200FB023383
:10295000B3F57A7F04D3013CD0D005F57A75E0E772
:1029600000F0A6FEDDE700BF2813FF1F1FBF020017
:10297000176CC116431E032B16D872B60B4951F8BB
:10298000230078B130B40A4CB0F800C034F81320FA
:10299000456841F82350A2EB0C0224F8132062B6DC
:1029A00030BC704762B6704700207047BC13FF1FF1
:1029B0000C14FF1F013803280BD872B6074B53F8CD
:1029C000203043B100205B680130002BFBD162B6A0
:1029D0007047002070471846F9E700BFE413FF1F57
:1029E00010B472B61A4A1B4C042312F8011B0907D3
:1029F00043F0010C05D554F8331069B154F83C107C
:102A0000C9B10433142BF0D162B6134B00221A70F3
:102A10005DF8044B00F0AEBC0F4904EBC302083074
:102A200050600A780D4844F83300013A0A7062B6E3
:102A30005DF8044B7047084A094904EBCC030830A1
:102A40005860137844F83C10013B137062B6EFE70E
:102A50007C5600000000FF1F1414FF1F8800400078
:102A6000C8004000421E032A0ED81C4B400140F013
:102A7000100010B4034472B6194CA05C03281DD892
:102A8000DFE800F01416031970470520A05413F076
:102A9000080F088814BFC8228822083142EA004281
:102AA00059601A6062B65DF8044B70470320EDE789
:102AB00008330220EAE708330420E7E7094B53F81C
:102AC000220038B1084B53F82200416043F822102D
:102AD00062B6E8E743F82210034BF7E70000FF1F58
:102AE0000414FF1FE413FF1FF413FF1F2DE9F04F21
:102AF000DFF80CA3DFF80CB385B03DE0B04D9E08C5
:102B000005EBC607013A796813F00803D4B2A1F1C6
:102B1000080040F0B88055F836204FEA124C120CED
:102B200021F808CC00F0A78021F8063C41F8043CCD
:102B3000A44B53F82420002A00F00182A24B53F842
:102B40002420506043F82400A04B33F81420944410
:102B500023F814C000F0EEFB002800F0E98117F024
:102B6000080F9B4B00F1080018BF5B46786045F8E2
:102B7000363008238AF880309AF880305907DCB262
:102B80001BD5944B1B78ABB193490A7802F0FF0335
:102B90002AB1013BDBB20B70002B00F046838F495A
:102BA0000A7802F0FF032AB1013BDBB20B70002B65
:102BB00000F0EB8104238AF8803014F0080200F062
:102BC000CC819AF89020D3B2120997D1DFF8F09116
:102BD0009B0809EBC30459F833006468C0F3830011
:102BE00009287CD00FD80138012808D87C4A1588DC
:102BF00042F22100854200F0FB8149F833B0012305
:102C00008AF89430B5E70D28F9D1D4E90007754D5D
:102C100049F833B0724E744CC9F8102083B240F2B8
:102C2000816CC9F818202A6063454FF00102C6E99B
:102C30000007227000F2FF80B3F5D06F80F0CB82E6
:102C4000B3F5817F00F0268240F2DE8040F202324E
:102C500093427BD107F07F07042F00F20881020C1A
:102C600040F00581614911F8273043F0020301F873
:102C70002730134670E017F0080F554B18BF5B461E
:102C800045F8363075E700F075FB5949594A51F857
:102C90002430002B00F05781586841F82400115D62
:102CA00003F108007860032905D8DFE801F0120F6E
:102CB0001502042111551A8817F0080F14BFC823F4
:102CC000882343EA024345F8363052E70221115582
:102CD000F1E703211155EEE705211155EBE7414DD1
:102CE0002A683AB34449404C0F88444894F800E0BD
:102CF0000678402F3B4628BF4023BEF1000F8EF0E0
:102D0000010E84F800E046F0020486F00106067029
:102D100009EBC400426014BFC820882040EA034089
:102D20001A44FB1A9BB249F834000B80002B00F0C8
:102D300036812A602A4B1A88B2F5A06F7FF45FAF04
:102D40009A788AF8982000225A7058E7B3F5A06F55
:102D500040F08D8000221346B6F806C027489445FF
:102D600028BF944667460278402F28BF402742F08C
:102D7000020E3E0409EBCE0846F0C806C8F804303F
:102D800049F83E6000263B442670BCEB070782F002
:102D90000106067040F01181BCF13F0F4FF00105B4
:102DA00009D946F00206027009EBC602257053608D
:102DB000882349F8363001238AF894301FE700BF92
:102DC0000000FF1FBC13FF1FCC13FF1F0C14FF1FBD
:102DD000880040000814FF1F0914FF1F3414FF1F50
:102DE000DC13FF1FB013FF1FAD13FF1FC0200740F0
:102DF000E413FF1F0414FF1FAE13FF1FAC13FF1FCC
:102E000000200740C8004000802B00F08B81822BFF
:102E10002DD107F07F07042F29D8A74A002313805C
:102E2000A64B13F827309F0740F1FC810123137054
:102E3000A14B022290E742F2210C6345BBD01DD981
:102E400042F2212293420DD1BFB2002F82D19C4B7E
:102E50001A689C4B1A609C4BC0F307400022187004
:102E6000134679E742F2213293423FF473AF0F23C6
:102E70008AF8C03001238AF89430C0E6B3F5086FB1
:102E800000F04A81B3F5106FF1D1904BC0F30740C9
:102E90000425187059F835301A0606D40135142D5A
:102EA0000CD059F835301A06F8D509EBC5030135B1
:102EB0005868083800F05EFA142DF2D1844A854B28
:102EC0000292854A0192854E854ADFF84882039432
:102ED000009200251C4656F8047B2FB138467F68C7
:102EE00000F048FA002FF9D1009BD8F8007043F8A1
:102EF000045B46F8045C00932FB138467F6800F00D
:102F000039FA002FF9D1029B48F8045B43F8045BBF
:102F10000293019B23F8025B01932378023B032B6E
:102F200000F20981DFE813F03F0104013F010401D1
:102F30006C4A45F8360013780133137019E643F8EC
:102F40002400674BFEE5115D022926D07FF611AE05
:102F500003291DD1012313550BE6E0076ED421068A
:102F600021D4A20708D5604B93F888200221D2B261
:102F700083F8882083F88010E30603D55A4B10228B
:102F800083F8802005B0BDE8F08F00F06DFB11E6FE
:102F900017F0080F14BF032302231355E9E53F2F51
:102FA00098BF0022C5E6504B80220D2183F8C01047
:102FB00083F88020A207DFD5D5E746F0020602702D
:102FC000402F09EBC6003A4628BF40224360100458
:102FD000134440F088000121BA1A49F836002170E4
:102FE00055D02B60414B1A8001238AF8943006E6B5
:102FF00092885AB93E4AE51D14F8011B02F8011FD8
:10300000AC42F9D13B4A1268862A3CD03A4C3B4844
:1030100025780278002D85F00105257042F0020424
:1030200082F00102027009EBC4024FF00000506010
:1030300014BFC822882249F83420DEE52A4B2F48E5
:103040002F49304C022583F8945002702E480C60B2
:103050002E4D48608C600D24CD60FF200A618A618E
:1030600083F8C04001219F2483F8880083F8800002
:1030700083F8982083F88C0083F8844083F89410B8
:1030800005B0BDE8F08F224A0F201070BEE73F2F39
:10309000A7D890E607F07F07042F3FF6E8AE000CB4
:1030A0007FF4E5AE054A12F8273023F0020302F858
:1030B0002730002213464FE6B413FF1FC0200740FD
:1030C0002813FF1F3014FF1F2C14FF1F0814FF1FAD
:1030D000F413FF1F0414FF1F0C14FF1FBC13FF1F6A
:1030E000CC13FF1F1414FF1F00200740AE13FF1F57
:1030F0002314FF1F2414FF1FAD13FF1FAC13FF1F6A
:103100000000FF1F880040002C13FF1F6C13FF1FDF
:103110000914FF1FE413FF1F484B49491B780B702C
:103120000B4619E6464A00231380454B022213E65C
:103130004FF001032370434BB34204F101047FF4C9
:10314000CAAE414E039CDFF81481404F0023337018
:10315000042518F8013B3E4AAB541B0725D445F023
:10316000020145F0030204350023142D49F83130E3
:1031700049F83230EDD1374F25783A7842F00200E5
:1031800009EBC00C85F00106CCF80430002D4DD1C0
:10319000882382F0010226703A7049F8303001230A
:1031A0008AF894302BE52570C5E700F0C3F80028B5
:1031B00032D009EBC5030830586049F8357000F08B
:1031C000B9F808B345F0010309EBC30208305060B9
:1031D00049F833B0C3E7204A5368002B3FF447AEA9
:1031E000000CBFB204E013690C32002B3FF43FAE79
:1031F00011888142F7D15188B942F4D1000A0328DD
:103200000CBF1A781289A7E533780133337045F083
:10321000010349F83300A2E7337849F83500013358
:103220003370CCE7064B022296E500BE2670C82319
:1032300082F001063E7049F83030BCE50814FF1FEB
:10324000B413FF1FCC13FF1F1414FF1F880040008E
:10325000C0200740AC13FF1F285600007C5600001A
:1032600010B500F09FFA0023234A194642F83310A4
:1032700002EBC3000133142B4160F7D11F48204CEF
:10328000436B43F480234363D4F8003800F52830BF
:1032900000F5807043F04073C4F80038032480F8D0
:1032A0004440184BA02480F84040C2F3072483F820
:1032B0009C40C2F30744120E83F8B0404FF0FF0C5D
:1032C00083F8B420012283F880C00F4C83F888C0B3
:1032D00083F810C083F8942001704FF0E02183F848
:1032E00084204FF0700C4FF40012102384F835C086
:1032F000C1F80421037210BD0000FF1F00800440CC
:1033000000D000400020074000E400E000F0ACB82E
:1033100000F07CB800F056B800F090B800F078B932
:1033200000F052B90846114600F0BAB8084600F05D
:103330003DB900BF72B60D490B68B3FA83F00B2894
:1033400010DC4FF00042C24023EA02030B6062B679
:10335000074A00EBC000C10002EBC000002353503D
:103360004360704762B60020704700BF6C0CFF1FBF
:10337000D003FF1F0E4BC31AB3F5587F10D20D4A6E
:10338000127872B972B60C4A0C49A2FB0323086882
:103390004FF000421B0922FA03F303430B6062B6AD
:1033A0007047074A1278002AECD0FFF719BB00BF1C
:1033B000D003FF1F1414FF1F398EE3386C0CFF1F5E
:1033C0000814FF1F38B50F4C206878B14388028875
:1033D000C11801339A420D7A02D94380284638BD7C
:1033E000FFF7C8FF00232360284638BD064B1B7833
:1033F0002BB10320FFF7BEFA20600028E6D14FF082
:10340000FF35EBE71814FF1F0814FF1F10B5094C18
:10341000206818B143881844007A10BD064B1B7809
:103420002BB10320FFF7A6FA20600028F2D14FF05D
:10343000FF3010BD1814FF1F0814FF1F084B094A66
:103440001B6810B594881BB11A885B88D31A1C447A
:103450000CB1204610BD00F02BF9204610BD00BF76
:103460001814FF1F0C14FF1F0B4B1B789BB110B5DA
:103470000A4C206848B1FFF77DFF0023032023603A
:10348000FFF778FA30B1FFF775FF0320FFF772FA04
:103490000028F8D110BD70470814FF1F1814FF1F33
:1034A0002DE9F04FDFF8F89083B0012289F8002071
:1034B000019179B3374FDFF8EC80019D364EDFF88C
:1034C000E8A083463868A8B3B0F802E0CEF1400C1B
:1034D000AC4528BFAC460EEB0C040022A4B23270FF
:1034E000A5EB0C05448000F10802BCF1000F0AD0E6
:1034F0000EF1FF3E7244DC441BF8014B02F8014F11
:10350000DC45F9D144883F2C0BD805228AF80020ED
:10351000002DD7D10198002389F8003003B0BDE811
:10352000F08F4022028001460420FFF79BFA002220
:103530003A60EAE798F800201AB3184C08E0013C1A
:1035400018D03278B2B900F0B3F898F80020C2B1C0
:103550000420FFF72FFA0728F1D84FF0010389F86C
:103560000030FFF7E7FE38600028ADD1013C89F854
:103570000000E6D101234FF0FF30337003B0BDE807
:10358000F08F00234FF0FF3089F8003003B0BDE822
:10359000F08F00BF2014FF1F1C14FF1F21480100E3
:1035A0001D14FF1F0814FF1F3414FF1F00B583B044
:1035B000034601210DF107008DF80730FFF770FF7A
:1035C00003B05DF804FB00BF38B50E4D0E4C286803
:1035D0000123237028B140880023C0F140002370EC
:1035E00038BD0A4B1B7813B90020207038BD042069
:1035F000FFF7E0F90728F7D8FFF79CFE28600028BE
:10360000E9D1F1E72014FF1F1D14FF1F0814FF1F4D
:10361000F8B5114B1B788BB1104E114D3468012752
:103620002F7064B10F4B00271F70638823802146E1
:103630000420FFF717FA376000232B70F8BDFFF75F
:1036400079FE084B014620B104201C70FFF70AFAEE
:10365000F2E71F70F0E700BF0814FF1F2014FF1FE0
:103660001D14FF1F3414FF1F38B50E4B1B7853B9C0
:103670000D4C216841B103F0FF054B880B800420FD
:10368000FFF7F0F9256038BDFFF754FE014620B181
:10369000BDE838400420FFF7E5B9044B01221A7059
:1036A00038BD00BF1D14FF1F2014FF1F3414FF1F5F
:1036B0002DE9F843324E337863B1324F3A784AB944
:1036C0000122D9073A7043D49A0726D400225B0717
:1036D0003A7001D4BDE8F8832B4B1A68002AF9D060
:1036E000EFF30582002AF5D1EFF3108572B6186862
:1036F00000283AD0254C2178002936D142691A6039
:1037000001232370002A37D0916105B962B60025E4
:103710008368457798472570DCE7DFF87C8098F868
:103720000020002AD2D00025DFF870902B4659F8EF
:103730002340236820461B690135984708B1236957
:10374000984798F80020EBB29A42F0D83378BDE75A
:10375000FFF774FE68B90E4B1B780BB93378B3E7EB
:10376000337803F0FE033370AEE7002DB2D162B6BA
:10377000B0E700F015F8EEE7064B1A60C5E700BFAA
:10378000700CFF1F3514FF1F0C13FF1F1813FF1FB2
:10379000A85300001C13FF1F5014FF1F3814FF1FF5
:1037A000704700BF10B584B072B6FEF73BFF174AF2
:1037B00017495160702080231070137013781B0616
:1037C000FCD5D468FEF744FF62B6124B9C423CBF66
:1037D00004EB8404640020460F4C01A90A22FEF782
:1037E00051FF01A92046002311F8012B01333AB102
:1037F0000A2B20F8022FF7D11623237004B010BD36
:103800005B00DBB2237004B010BD00BF00000240BB
:103810000000074180969800000DFF1F00F04AB895
:1038200008B52DED028BF0EE408AB0EE608A00F014
:10383000E9F8F4EE488AF1EE10FA06D6DFED098ACF
:10384000B4EE688AF1EE10FA02D0BDEC028B08BD2E
:1038500001F094FA88EEA80ABDEC028B21230360E4
:1038600008BD00BF0000000008B52DED028BB0EED2
:10387000408A00F01BF8B4EE488AF1EE10FA06D642
:10388000DFED098AB4EEE88AF1EE10FA02D4BDEC5D
:10389000028B08BD01F072FA88EEA80ABDEC028B1B
:1038A0002123036008BD00BF00000000B1EEC00A84
:1038B000704700BF10B582B0CDED010A019B23F027
:1038C0000042B2F1FF4FF0EE407A30DC10EE100A09
:1038D00020F00041B1F1FF4F29DCB3F17E5F42D00F
:1038E0009C1704F0020444EAD07431B37AB3B2F105
:1038F000FF4F40D0B1F1FF4F29D0891AB1F1F45FE9
:103900004FEAE15234DA002B42DA3C3240DA9FEDE2
:10391000340A012C4ED0022C43D064B19FED317A91
:10392000DFED317A30EE070A30EE670A03E09DEDF5
:10393000017A37EE270A02B010BD022C10D09FED9D
:103940002B7A032C08BFB0EE470A02B010BD9FEDE2
:10395000280ADFED287A0028B8BFB0EE670AEAE748
:103960009FED210AE7E702B0BDE8104000F0DAB8A9
:103970009FED1F0ACDE7B1F1FF4F04F1FF3420D0D6
:10398000022C26D81C4B03EB840393ED000AD2E7EC
:103990009DED017A87EE870A00F09EF900F0C2F8EB
:1039A000B7E79FED107ADFED107A30EE070A37EEB9
:1039B000C00AC0E710EE103A03F1004300EE103ADF
:1039C000B9E7022C08D80D4B03EB840393ED000AF2
:1039D000B1E79FED030AAEE79FED090AABE700BF31
:1039E000000000002EBDBB33DB0F4940DB0F49C098
:1039F000DB0FC93FDB0FC9BF8C56000080560000AB
:103A0000DB0F493F30B583B0CDED010A019D35F0A4
:103A1000004041D010EE10EA2EF00041B1F1FF4F0E
:103A20003ADAB0F1FF4F37DC81423BDB0EF0004465
:103A30003AD01EF0FF4F56D10B02002B6FF07D02E3
:103A400004DD5B00002B02F1FF32FADC15F0FF4FC2
:103A500058D103026FF07D0C03D45B000CF1FF3CE6
:103A6000FBD512F17E0F47DBCEF3160E4EF40003AA
:103A70001CF17E0F3ADBC5F3160141F40000B2EBF6
:103A80000C0204D117E00FD04B00013A13D0191AE1
:103A90000029F8DA5B00F8E7DDED017A60EE277ABD
:103AA00087EEA70A03B030BD1D4B03EB547393EDB3
:103AB000000A03B030BD181A58BF03461BB9F3E71C
:103AC0005B000CF1FF3CB3F5000FF9DB1CF17E0F3E
:103AD0001DDBA3F500030CF17F0C234343EACC5319
:103AE00000EE103ADEE7CA157F3AAFE76FF07D01CE
:103AF000A1EB0C018840C2E76FF07D039B1A01FA2D
:103B000003F3B5E74FEAE05CACF17F0CA9E76FF097
:103B10007D02A2EB0C021341234300EE103AC1E7F1
:103B20009856000038B510EE105A25F00044B4F154
:103B3000A14FF0EE407A0DDBB4F1FF4F5BDCDFED1F
:103B4000537A9FED537A002DD4BFB0EE470AB0EE02
:103B5000670A38BD4F4B9C425CDCB4F1445F4DDBDF
:103B60004FF0FF3327EEA76ADFED4B6ADFED4B5ACC
:103B7000DFED4B4A9FED4B5A9FED4B4A26EE067AFE
:103B80005A1CE7EE265ADFED496AA5EE875AE7EEA2
:103B9000246ADFED475ADFED474AE6EE875AA5EE85
:103BA000074A9FED455ADFED456AA5EE875AE4EED8
:103BB000074ADFED435AE4EE876AE5EE075A66EE00
:103BC000866A65EE875A3AD03E4A02EB830276EE69
:103BD000A56A92ED007A3C4A96EEA77A02EB83033F
:103BE000002DD3ED006A77EE677A36EEE70AB0DA99
:103BF000B1EE400A38BD30EE000A38BD9FED337A91
:103C000030EE077AF7EE006AB4EEE67AF1EE10FADB
:103C1000A6DD38BD00F060F82D4B9C4216DCA3F504
:103C2000D0039C4227DCF0EE007ABFEE007AA0EED3
:103C3000277A002330EE270AC7EE007A92E776EE65
:103C4000A56AE6EEE77AB0EE670A38BD214B9C42E2
:103C50000BDCF7EE087AB7EE007AA0EE277A0223A3
:103C600030EE670AC0EE077A7CE7BFEE007AC7EE57
:103C7000007A032376E7F7EE007A30EE677A30EECB
:103C8000270A0123C7EE007A6CE700BFDB0FC93FAC
:103C9000DB0FC9BFFFFFDF3ED769853C59DA4B3DDB
:103CA00021A215BD356B883D6E2EBA3D6BF16EBD00
:103CB00095879DBD2549123E388EE3BDABAAAA3E2D
:103CC000CDCC4CBEB0560000A0560000CAF24971DF
:103CD000FFFF973FFFFF1B4010EE103A23F0004319
:103CE00000EE103A704700BF03460846194600F040
:103CF000A9BF00BF81F0004102E000BF83F0004394
:103D000030B54FEA41044FEA430594EA050F08BF76
:103D100090EA020F1FBF54EA000C55EA020C7FEA3A
:103D2000645C7FEA655C00F0E2804FEA5454D4EBB7
:103D30005555B8BF6D420CDD2C4480EA020281EA81
:103D4000030382EA000083EA010180EA020281EAB9
:103D50000303362D88BF30BD11F0004F4FEA01310B
:103D60004FF4801C4CEA113102D0404261EB41011A
:103D700013F0004F4FEA03334CEA133302D05242A0
:103D800063EB430394EA050F00F0A780A4F101045C
:103D9000D5F1200E0DDB02FA0EFC22FA05F2801896
:103DA00041F1000103FA0EF2801843FA05F359417C
:103DB0000EE0A5F120050EF1200E012A03FA0EFCFB
:103DC00028BF4CF0020C43FA05F3C01851EBE37125
:103DD00001F0004507D54FF0000EDCF1000C7EEB42
:103DE00000006EEB0101B1F5801F1BD3B1F5001F80
:103DF0000CD349085FEA30004FEA3C0C04F101049F
:103E00004FEA445212F5800F80F09A80BCF1004FC7
:103E100008BF5FEA500C50F1000041EB045141EA49
:103E2000050130BD5FEA4C0C404141EB0101013C12
:103E300028BFB1F5801FE9D291F0000F04BF014601
:103E40000020B1FA81F308BF2033A3F10B03B3F1D3
:103E500020020CDA0C3208DD02F1140CC2F10C0263
:103E600001FA0CF021FA02F10CE002F11402D8BFC1
:103E7000C2F1200C01FA02F120FA0CFCDCBF41EA8D
:103E80000C019040E41AA2BF01EB0451294330BD5C
:103E90006FEA04041F3C1CDA0C340EDC04F1140439
:103EA000C4F1200220FA04F001FA02F340EA030010
:103EB00021FA04F345EA030130BDC4F10C04C4F156
:103EC000200220FA02F001FA04F340EA0300294636
:103ED00030BD21FA04F0294630BD94F0000F83F480
:103EE000801306BF81F480110134013D4EE77FEA63
:103EF000645C18BF7FEA655C29D094EA050F08BFAF
:103F000090EA020F05D054EA000C04BF194610468F
:103F100030BD91EA030F1EBF0021002030BD5FEAD3
:103F2000545C05D14000494128BF41F0004130BDFB
:103F300014F580043CBF01F5801130BD01F000454F
:103F400045F0FE4141F470014FF0000030BD7FEAC2
:103F5000645C1ABF194610467FEA655C1CBF0B46BD
:103F6000024650EA013406BF52EA033591EA030FD4
:103F700041F4002130BD00BF90F0000F04BF0021CC
:103F8000704730B54FF4806404F132044FF00005FF
:103F90004FF0000150E700BF90F0000F04BF002178
:103FA000704730B54FF4806404F1320410F00045DE
:103FB00048BF40424FF000013EE700BF42004FEAD9
:103FC000E2014FEA31014FEA02701FBF12F07F4356
:103FD00093F07F4F81F06051704732F07F4208BF0D
:103FE000704793F07F4F04BF41F40021704730B514
:103FF0004FF4607401F0004521F000411CE700BF60
:1040000050EA010208BF704730B54FF000050AE0E2
:1040100050EA010208BF704730B511F0004502D5E3
:10402000404261EB41014FF4806404F132045FEAE5
:10403000915C3FF4D8AE4FF003025FEADC0C18BF8E
:1040400003325FEADC0C18BF033202EBDC02C2F180
:10405000200300FA03FC20FA02F001FA03FE40EA12
:104060000E0021FA02F11444BDE600BF70B54FF016
:10407000FF0C4CF4E06C1CEA11541DBF1CEA1355F4
:1040800094EA0C0F95EA0C0F00F0DEF82C4481EA5C
:10409000030621EA4C5123EA4C5350EA013518BF7C
:1040A00052EA033541F4801143F4801338D0A0FB69
:1040B00002CE4FF00005E1FB02E506F00042E0FB16
:1040C00003E54FF00006E1FB03569CF0000F18BF1C
:1040D0004EF0010EA4F1FF04B6F5007F64F54074C4
:1040E00004D25FEA4E0E6D4146EB060642EAC62157
:1040F00041EA55514FEAC52040EA5E504FEACE2EC4
:10410000B4F1FD0C88BFBCF5E06F1ED8BEF1004FC6
:1041100008BF5FEA500E50F1000041EB045170BD42
:1041200006F0004646EA010140EA020081EA030186
:10413000B4EB5C04C2BFD4EB0C0541EA045170BD82
:1041400041F480114FF0000E013C00F3AB8014F1FC
:10415000360FDEBF002001F0004170BDC4F1000445
:10416000203C35DA0C341BDC04F11404C4F12005C6
:1041700000FA05F320FA04F001FA05F240EA020021
:1041800001F0004221F0004110EBD37021FA04F657
:1041900042EB06015EEA430E08BF20EAD37070BD11
:1041A000C4F10C04C4F1200500FA04F320FA05F070
:1041B00001FA04F240EA020001F0004110EBD37072
:1041C00041F100015EEA430E08BF20EAD37070BDE2
:1041D000C4F1200500FA05F24EEA020E20FA04F3BB
:1041E00001FA05F243EA020321FA04F001F000416A
:1041F00021FA04F220EA020000EBD3705EEA430EDB
:1042000008BF20EAD37070BD94F0000F0FD101F009
:104210000046400041EB010111F4801F08BF013C42
:10422000F7D041EA060195F0000F18BF704703F080
:104230000046520043EB030313F4801F08BF013D07
:10424000F7D043EA0603704794EA0C0F0CEA1355C3
:1042500018BF95EA0C0F0CD050EA410618BF52EA7D
:104260004306D1D181EA030101F000414FF0000083
:1042700070BD50EA410606BF1046194652EA430691
:1042800019D094EA0C0F02D150EA013613D195EA05
:104290000C0F05D152EA03361CBF104619460AD14D
:1042A00081EA030101F0004141F0FE4141F4700157
:1042B0004FF0000070BD41F0FE4141F4780170BD47
:1042C00070B54FF0FF0C4CF4E06C1CEA11541DBFAC
:1042D0001CEA135594EA0C0F95EA0C0F00F0A7F8AE
:1042E000A4EB050481EA030E52EA03354FEA0131DB
:1042F00000F088804FEA03334FF0805545EA1313EE
:1043000043EA12634FEA022245EA111545EA1065B5
:104310004FEA00260EF000419D4208BF964244F14C
:10432000FD0404F5407402D25B084FEA3202B61A6B
:1043300065EB03055B084FEA32024FF480104FF43F
:10434000002CB6EB020E75EB030E22BFB61A7546B3
:1043500040EA0C005B084FEA3202B6EB020E75EB46
:10436000030E22BFB61A754640EA5C005B084FEAAE
:104370003202B6EB020E75EB030E22BFB61A75467B
:1043800040EA9C005B084FEA3202B6EB020E75EB86
:10439000030E22BFB61A754640EADC0055EA060E47
:1043A00018D04FEA051545EA16754FEA06164FEA8A
:1043B000C30343EA52734FEAC2025FEA1C1CC0D136
:1043C00011F4801F0BD141EA00014FF000004FF0C3
:1043D000004CB6E711F4801F04BF01430020B4F184
:1043E000FD0C88BFBCF5E06F3FF6AFAEB5EB030C3C
:1043F00004BFB6EB020C5FEA500C50F1000041EB39
:10440000045170BD0EF0004E4EEA113114EB5C0405
:10441000C2BFD4EB0C0541EA045170BD41F48011D8
:104420004FF0000E013C90E645EA060E8DE60CEAE0
:10443000135594EA0C0F08BF95EA0C0F3FF43BAFFD
:1044400094EA0C0F0AD150EA01347FF434AF95EAB4
:104450000C0F7FF425AF104619462CE795EA0C0F98
:1044600006D152EA03353FF4FDAE1046194622E765
:1044700050EA410618BF52EA43067FF4C5AE50EA3F
:1044800041047FF40DAF52EA43057FF4EBAE12E72F
:104490004FF0FF3C06E000BF4FF0010C02E000BF10
:1044A0004FF0010C4DF804CD4FEA410C7FEA6C5CF3
:1044B0004FEA430C18BF7FEA6C5C1BD001B050EA96
:1044C000410C0CBF52EA430C91EA030F02BF90EA81
:1044D000020F0020704710F1000F91EA030F58BF40
:1044E000994208BF90422CBFD8176FEAE37040F0A2
:1044F000010070474FEA410C7FEA6C5C02D150EA40
:10450000013C07D14FEA430C7FEA6C5CD6D152EAFA
:10451000033CD3D05DF8040B704700BF84461046BF
:1045200062468C461946634600E000BF01B5FFF7BE
:10453000B7FF002848BF10F1000F01BD4DF808ED8E
:10454000FFF7F4FF0CBF012000205DF808FB00BF5F
:104550004DF808EDFFF7EAFF34BF012000205DF8B9
:1045600008FB00BF4DF808EDFFF7E0FF94BF012006
:1045700000205DF808FB00BF4DF808EDFFF7CEFF07
:1045800094BF012000205DF808FB00BF4DF808ED46
:10459000FFF7C4FF34BF012000205DF808FB00BF17
:1045A0004FEA410C7FEA6C5C02D150EA013C0AD12F
:1045B0004FEA430C7FEA6C5C02D152EA033C02D121
:1045C0004FF0000070474FF0010070474A0011D2D1
:1045D00012F5001211D20DD56FF47873B3EB62525D
:1045E0000ED44FEAC12343F0004343EA505323FA69
:1045F00002F070474FF00000704750EA013002D1DE
:104600004FF0FF3070474FF0000070474FEA410213
:10461000B2F1E04324BFB3F5001CDCF1FE5C0DD920
:1046200001F0004C4FEAC0024CEA5070B2F1004F6A
:1046300040EB830008BF20F00100704711F0804F6D
:1046400021D113F13872BCBF01F00040704741F432
:1046500080114FEA5252C2F11802C2F1200C10FA36
:104660000CF320FA02F018BF40F001004FEAC1231A
:104670004FEAD32303FA0CFC40EA0C0023FA02F3BE
:104680004FEA4303CCE77FEA625307D150EA013394
:104690001EBF4FF0FE4040F44000704701F0004064
:1046A00040F0FE4040F40000704700BF024B01465E
:1046B000186800F00BB800BF4812FF1F024B0146FC
:1046C000186800F02DBC00BF4812FF1F2DE9F04F05
:1046D00001F10B06162E83B0044624D8102900F2EF
:1046E000BA8000F0A3FA102618220220B54F3A44EF
:1046F000A2F1080153688B4200F0BA805A68D96869
:1047000022F003021A449D68E9608D60516841F00F
:1047100001012046516003F1080500F08DFA28469A
:1047200003B0BDE8F08F36F0070600F19480B14287
:1047300000F2918000F07AFAB6F5FC7FC0F09A8121
:10474000730A00F08F80042B00F26F81B30903F12C
:10475000390003F1380CC3009A4F3B44A3F108051C
:104760005B689D4206D10CE0002980F22781DB685E
:104770009D4206D05A6822F00302911B0F29F3DDF7
:1047800060463D69DFF850C265457CD06A6822F01A
:104790000302931B0F2B00F37B81002BC7E904CC92
:1047A00080F26C81B2F5007F80F01A81D3087968BD
:1047B00001334FEA521E012202FA0EF20A4357F861
:1047C00033E0C5F808E007EBC3010839E9607A6017
:1047D00047F83350CEF80C50831001219940914294
:1047E00057D8114206D120F003004900114200F1D0
:1047F0000400FAD007EBC0094D468646D5F80C8078
:10480000454508D11DE1002B80F22481D8F80C80A9
:10481000454500F01681D8F8042022F00302931BCE
:104820000F2BF0DD2046D8E9025408EB060146F0D4
:104830000106C8F80460EC60A56043F00104C7E914
:104840000411C1E902CC4C6048F8023000F0F4F9E0
:1048500008F1080502E00C2323600025284603B078
:10486000BDE8F08F4FF4007340204FF03F0C73E72A
:10487000D3689A4208BF02307FF440AF3D69DFF849
:1048800058C1654582D17A688310012199409142CF
:10489000A7D9BD686B6823F003094E4503D8A9EB7F
:1048A00006030F2B7ADCDFF834B1474BDBF800202E
:1048B0001B680132334405EB090A00F0338103F52C
:1048C00080530F3323F47F6828F00F0841462046B9
:1048D00000F042FA411C024600F0F380824500F2EB
:1048E000EE803A4B196841441960084600F04E8149
:1048F000DBF80010019301311BBFA2EB0A0109187C
:10490000CBF80020196012F0070B00F01781CBF1F3
:1049100008010A44CBF5805190440831A1EB08010D
:10492000C1F30B0A51462046009200F015FA421CD2
:10493000DDE9002300F04F81801A00EB0A081968B6
:10494000BA6048F001005144BD425060196000F067
:104950002981B9F10F0F40F227816868A9F10C0C89
:104960002CF0070C00F0010040EA0C0068604FF0EA
:10497000050E05EB0C00BCF10F0FC0E901EE00F2D3
:10498000328150681546124B1A688A4238BF196046
:10499000104B1A688A4238BF196094E0AA1943F094
:1049A000010346F001066E602046BA60536000F0D5
:1049B00043F90835284603B0BDE8F08FD9681A449A
:1049C000A1E600BF180DFF1F8414FF1F5414FF1F22
:1049D0007C14FF1F8014FF1F200DFF1F2011FF1FDD
:1049E000B2F5206F4FEA522363D3142B00F2B78045
:1049F00003F15C01C9005B3307EB010E7958AEF19E
:104A0000080E8E4500F091804B6823F0030393421B
:104A100002D989688E45F7D1D1F80CE07A68C5E9EA
:104A2000021ECEF80850CD60D6E6142B59D9542B6F
:104A300000F29D80330B03F16F0003F16E0CC30095
:104A40008AE60EF1010E1EF0030F05F108057FF452
:104A5000D5AE51E0424445465368D8F80C1043F0B7
:104A60000103536055F8083F2046D9608B6000F081
:104A7000E3F8F3E6F00806F1080237E62A44204698
:104A8000536843F001035360083500F0D5F8E5E6BC
:104A9000A919204646F0010643F001046E60C7E9FB
:104AA0000411C1E902CC4C60AB5000F0C5F80835E8
:104AB000D4E6930903F13901C90038339CE7BD42BC
:104AC0005FD0BD68686820F003084645A8EB060380
:104AD00002D80F2B3FF762AF204600F0ADF800255B
:104AE000BCE603F15C0003F15B0CC30034E659F84B
:104AF00008394B4540F0968010F0030F00F1FF306D
:104B0000F5D17B6823EA01037B60490099423FF6B7
:104B1000C0AE19B9BDE649000EF1040E1942FAD033
:104B2000704667E603F11008D0E69A104FF00108CE
:104B30007B6808FA02F21A437A6070E702EB080118
:104B40004942C1F30B0A51462046009200F004F995
:104B5000431CDDE900237FF4EFAEDA46EFE6542B89
:104B600025D8130B03F16F01C9006E3344E7B3F589
:104B7000AA7F25D8F30B03F1780003F1770CC3006B
:104B8000EAE5294B186840441860B1E6CAF30B0CFB
:104B9000BCF1000F7FF4ACAEBD68C84448F0010022
:104BA0006860F0E61546EEE60123536094E7B3F53E
:104BB000AA7F23D8D30B03F17801C90077331BE711
:104BC00040F25452934223D8B30C03F17D0003F119
:104BD0007C0CC300C0E5ABF1080BD844A8EB02087D
:104BE0004FF0000AABE605F108012046009300F003
:104BF00097F9BD68009B68681968C4E640F2545193
:104C00008B420BD8930C03F17D01C9007C33F3E692
:104C10004FF47E737F204FF07E0C9DE54FF47E7144
:104C20007E23E9E67B6870E75414FF1F014800F01B
:104C3000CFB800BFC815FF1F014800F0CBB800BFB8
:104C4000C815FF1F13460A460146022000F0C4B8EB
:104C5000830730B548D0541E002A3FD0CAB203465D
:104C600001E0013C3AD303F8012B9D07F9D1032C55
:104C70002DD9CDB245EA05250F2C45EA054536D993
:104C8000A4F1100222F00F0C03F1200EE6444FEACB
:104C9000121C03F1100242E9045542E90255103298
:104CA0007245F8D10CF1010214F00C0F03EB021263
:104CB00004F00F0C13D0ACF1040323F0030304330E
:104CC000134442F8045B9342FBD10CF003042CB173
:104CD000C9B21C4403F8011B9C42FBD130BD6446A1
:104CE0001346002CF4D1F9E703461446BFE71A46F1
:104CF000A446E0E740EA01039B0730B501D1032A4F
:104D00000FD8844601F1FF3E07E01EF8011F03F8AB
:104D1000011B541EC1B19C4622466346002AF4D1B1
:104D200030BD0B468446194653F8045BA5F10134A7
:104D300024EA050414F0803FE4D1043A032A4CF835
:104D4000045B1946EFD8DDE79444002CE8D003F863
:104D5000011B6345FBD130BD38B5074D0022044629
:104D600008462A60FDF744FC431C00D038BD2B6880
:104D7000002BFBD0236038BDC015FF1F014B186806
:104D8000704700BF4812FF1F70B50D4E0D4D761BCA
:104D9000B61006D0002455F8043B01349847A642CB
:104DA000F9D1094E094D761B00F08AFCB61006D0E9
:104DB000002455F8043B01349847A642F9D170BD50
:104DC000CC560000CC560000D8560000CC5600004F
:104DD000704700BF704700BF2DE9F047DFF87CA0A7
:104DE0000646DAF8000098460F469146FFF7F0FFB6
:104DF000184B1C6824B365681F2D24DC5EB96B1C3E
:104E00000235DAF80000636044F82570FFF7E2FF2E
:104E10000020BDE8F08704EB85010123C1F88890EC
:104E2000D4F88821AB401A43022EC4F88821C1F877
:104E30000881E4D1D4F88C211A43C4F88C21DEE730
:104E4000054C1C60D7E7DAF80000FFF7C3FF4FF00E
:104E5000FF30DEE75C17FF1FCC15FF1F4C12FF1F52
:104E6000024B13B1024800F005B870470000000083
:104E70002D510000002301461A461846FFF7ACBF2B
:104E8000F8B5244F0C460646FFF7D0FEBB685D68B8
:104E9000C4F57E610F3125F003054B1923F47F63C0
:104EA00023F00F03A3F58054B4F5805F07DB0021E6
:104EB0003046FFF751FFBB682B44984204D0304680
:104EC000FFF7BAFE0020F8BD61423046FFF744FF0D
:104ED00001300DD0104ABB682D1B45F001055D6007
:104EE000136830461B1B1360FFF7A6FE0120F8BDB8
:104EF00000213046FFF730FFBA68831A0F2BDEDD42
:104F000043F001035360054B03491B68C01A086056
:104F1000D5E700BF180DFF1F5414FF1F2011FF1FFE
:104F2000002961D0F8B50C460646FFF77FFE54F81D
:104F3000042C7B4FA4F1080522F0010105EB010CC4
:104F4000B868DCF80430604523F0030300F08B8080
:104F5000D207CCF8043032D454F8082CAD1A1144DE
:104F6000AA6807F1080082426AD00CEB0304D4F867
:104F700004E0EC68D4601EF0010FA26000F097809E
:104F800041F001036B60CCF80010B1F5007F35D221
:104F90007868CB080122490901338A40024357F857
:104FA00033107A6007EBC302083AC5E9021247F8EA
:104FB0003350CD603046BDE8F840FFF73DBE0CEB06
:104FC00003025268D00710D4194407F10800DCF836
:104FD0000830834273D0DCF80C20DA60936041F033
:104FE00001036B606950D0E7704741F00103B1F5F0
:104FF000007F44F8043CCCF80010C9D3B1F5206F11
:105000004FEA512348D28B0903F1390003F13802EA
:10501000C300F818FB580838984259D05A6822F053
:1050200003028A4202D99B689842F7D1D868C5E941
:1050300002308560DD603046BDE8F840FFF7FCBD1A
:105040000CEB03025268D20763D40B44DCE9021272
:10505000CA60916043F001026A603046EB50BDE8DF
:10506000F840FFF7E9BD0B44D10707D454F8082CEA
:10507000AD1A1344D5E90212CA60916043F00102EF
:105080006A60284ABD6012689A4293D8264B30461F
:105090001968FFF7F5FE8DE7142B0AD9542B1FD89A
:1050A0000B0B03F16F0003F16E02C300B1E719446B
:1050B0008DE703F15C0003F15B02C300A9E741F057
:1050C0000103C7E90455C5E902006B60695071E747
:1050D00079689210012404FA02F20A437A60A6E782
:1050E000B3F5AA7F06D8CB0B03F1780003F1770262
:1050F000C3008EE740F25452934206D88B0C03F162
:105100007D0003F17C02C30083E74FF47E737E22AF
:105110007FE741F001036B60CCF800104AE700BF65
:10512000180DFF1F2411FF1F8414FF1F38B5074DF2
:10513000074C2C1BA41005D0013C55F8043D9847A2
:10514000002CF9D1BDE8384000F0C6BA00000000DC
:1051500000000000494E49545F535441525400002E
:10516000494E49545F434F4D504C45544500FFFF55
:10517000766572742C6C61742C746F72732C696E0A
:105180005461726765742C74656D706F506F732C09
:105190007265700044415441000000002C00000082
:1051A0004E614E003D3D3D2043616C696272617A03
:1051B000696F6E65204144584C333337203D3D3D87
:1051C00000000000494D504F5254414E54453A2082
:1051D000506F73697A696F6E6120696C2073656EB8
:1051E000736F72652050494154544F20636F6E2095
:1051F0005A20766572736F206C27414C544F20649F
:105200007572616E7465206C612063616C69627295
:10521000617A696F6E65210054656E73696F6E699E
:105220002063616C696272617A696F6E65202D20FE
:10523000583A2000562C20593A200000562C205A6B
:105240003A200000560000004F66667365742066C1
:10525000696E616C69202D20583A20005465737482
:1052600020616363656C6572617A696F6E69202D78
:1052700020583A2000000000672C20593A200000F6
:10528000672C205A3A200000670000005A20646F03
:1052900076726562626520657373657265207E3122
:1052A0002E30672C20582065205920646F76726557
:1052B000626265726F20657373657265207E302E41
:1052C000306700003D3D3D3D3D3D3D3D3D3D3D3D6B
:1052D0003D3D3D3D3D3D3D3D3D3D3D3D00FFFFFFF5
:1052E000424E4F30353500FF000000000000000046
:1052F000D111000065120000A51200002516000063
:10530000A9120000288004408000000038FFFFFF41
:10531000FF020000000039FFFFFFFF020000000055
:105320005B000000288004404000000004FFFFFFF5
:10533000FF0500000000031AFFFFFF050500000045
:105340004A0000003480044080000000263AFFFF3D
:10535000FF0206000000253BFFFFFF0206000000E1
:10536000190000003480044040000000121122089F
:10537000300202050702131021072F02020507025F
:105380001800000000000000000000007518000078
:105390009D18000049180000711800004D18000009
:1053A000851600005918000000FFFFFF6E616E00B7
:1053B000696E66006F766600050E08090D0C06071B
:1053C0000F0403938E8F050E08090D0C06070F04BA
:1053D000FFFFFFFFFFFFFF8E8F11128485868791ED
:1053E000FFFFFFFFFFFFFFFFFF8A8BFFFFFFFFFFB6
:1053F000FFFFFFFFFFFFFFFF0393179701811A9243
:105400004008FE4340A004404408FE4344A004403A
:105410000018FE4300C004403000FE4330900440BA
:105420003400FE43349004401C18FE431CC004406A
:105430001018FE4310C004400818FE4308C0044082
:105440000C18FE430CC004400C10FE430CB004408A
:105450001010FE4310B004401810FE4318B0044072
:105460001C10FE431CB004401410FE4314B0044052
:105470000418FE4304C004400010FE4300B0044082
:105480000008FE4300A004400408FE4304A00440BA
:105490000C08FE430CA004400808FE4308A004408A
:1054A0001418FE4314C004401818FE4318C00440EA
:1054B0000410FE4304B004400810FE4308B004404A
:1054C0006820FE4368D004401400FE43149004405A
:1054D0003800FE43389004403C00FE433C900440BA
:1054E0004000FE43409004404808FE4348A004406A
:1054F0004C08FE434CA004402808FE4328A004406A
:105500002C08FE432CA004406020FE4360D00440E1
:105510006420FE4364D004402010FE4320B00440C9
:105520002410FE4324B004402810FE4328B0044059
:105530002C10FE432CB004404400FE434490044031
:105540007000FE43709004407400FE437490044069
:105550006800FE43689004405008FE4350A0044099
:105560005808FE4358A004405C08FE435CA0044079
:105570005408FE4354A004402018FE4320C00440B9
:105580002418FE4324C004401008FE4310A0044029
:105590001408FE4314A004403818FE4338C00440E9
:1055A0003418FE4334C004403018FE4330C0044079
:1055B0003C18FE433CC004402C18FE432CC0044061
:1055C0002820FE4328D004402C20FE432CD0044049
:1055D0000020FE4300D004400420FE4304D00440D9
:1055E0000820FE4308D004400C20FE430CD00440A9
:1055F0001020FE4310D004401420FE4314D0044079
:1056000000000000000000002D33000025330000E2
:10561000213300001D330000193300001533000052
:10562000113300000D33000000010000B80CFF1F13
:105630001200000000020000740CFF1F4300000075
:1056400000030000CC0CFF1F000000000103090450
:10565000D00CFF1F0000000002030904E80CFF1F2C
:105660000000000003030904000DFF1F00000000FC
:1056700000000000000000000000000000151915E7
:10568000DB0F49BFE4CB1640E4CB16C0000000801E
:10569000DB0F4940DB0F49C0000000000000008024
:1056A0003863ED3EDA0F493F5E987B3FDA0FC93F22
:1056B0006937AC3168212233B40F14336821A23327
:1056C000F8B500BFF8BC08BC9E467047614E0000AC
:0856D000350400007512000012
:0456D800F8B500BF62
:0856DC000CE6FF7F0100000055
:1056E4000000000000C079C400C079C4F4010000C7
:1056F40000C0794400C079440000B4420000B442C0
:105704000000204100002041000020410000A04191
:10571400C80000008C53000000000000E8030000F3
:105724000000000000600640645300000000000018
:105734000000000000000000000000000000000065
:105744000000000000000000000000000000000055
:105754000000000000000000000000000000000045
:105764000000000000000000000000000000000035
:105774000000000000000000000000000000000025
:105784000000000000000000000000000000000015
:105794000000000000000000000000000000000005
:1057A40000000000000000000000000000000000F5
:1057B40000000000000000000000000000000000E5
:1057C40000000000000000000000000000000000D5
:1057D40000000000000000000000000000000000C5
:1057E40000000000000000000000000000000000B5
:1057F40000000000000000000000000000000000A5
:105804000000000000000000000000000000000094
:105814000000000000000000000000000000000084
:105824000000000000000000000000000000000074
:105834000000000000000000000000000000000064
:105844000000000000000000000000000000000054
:105854008C53000000000000E8030000000000007A
:1058640000700640445300000000000000000000E7
:105874000000000000000000000000000000000024
:105884000000000000000000000000000000000014
:105894000000000000000000000000000000000004
:1058A40000000000000000000000000000000000F4
:1058B40000000000000000000000000000000000E4
:1058C40000000000000000000000000000000000D4
:1058D40000000000000000000000000000000000C4
:1058E40000000000000000000000000000000000B4
:1058F40000000000000000000000000000000000A4
:105904000000000000000000000000000000000093
:105914000000000000000000000000000000000083
:105924000000000000000000000000000000000073
:105934000000000000000000000000000000000063
:105944000000000000000000000000000000000053
:105954000000000000000000000000000000000043
:105964000000000000000000000000000000000033
:105974000000000000000000000000000000000023
:105984000000000000000000000000008C53000034
:1059940000000000E80300000000000000600E406A
:1059A400245300000000000000000000000000007C
:1059B40000000000000000000000000000000000E3
:1059C40000000000000000000000000000000000D3
:1059D40000000000000000000000000000000000C3
:1059E40000000000000000000000000000000000B3
:1059F40000000000000000000000000000000000A3
:105A04000000000000000000000000000000000092
:105A14000000000000000000000000000000000082
:105A24000000000000000000000000000000000072
:105A34000000000000000000000000000000000062
:105A44000000000000000000000000000000000052
:105A54000000000000000000000000000000000042
:105A64000000000000000000000000000000000032
:105A74000000000000000000000000000000000022
:105A84000000000000000000000000000000000012
:105A94000000000000000000000000000000000002
:105AA40000000000000000000000000000000000F2
:105AB40000000000000000000000000000000000E2
:105AC40000000000000000008C53000000000000F3
